:020000040000FA
:0400000000000A28CA
:080008008B183D200B18482065
:100010000B11090000008316031300308800D8304C
:10002000810083120313A0308B0000008B108B170C
:100030000B160130A10000000130A2008801302021
:1000400081010B1D21281F300802031C28281E28AF
:10005000210888072208B3003020B30B2C28202861
:100060004030B0004030B1004030B200B20B362812
:10007000B10B3428B00B32280800A10A0630210247
:10008000031C44280130A1008B108B170B160800AD
:10009000A20A06302202031C4F280130A200860863
:0E00A000003086000B108B150B168B17080016
:02400E00333746
:00000001FF
